:1000000003308A00602B00006310201020102010A5
:100010002010201020102010201020102010201060
:10002000201020102000631054347510D63465372A
:1000300020226110CD372010201020102010201019
:10004000201000016310201020102010201020101C
:100050002010201020102010201020102010201020
:1000600020100001632AE83A202BE9326E10C430D8
:1000700020326F3767102010201020102010201021
:1000800020006310201020102010201020102010BD
:1000900020102010201020102010201020103A00D6
:1000A00063105326A03AF3327210BA1264100000A3
:1000B00063226110D430202AEF34202261102010F6
:1000C0002010201020006327F536E2327210D53957
:1000D00065392010201020102010201020006310FF
:1000E0002010201020102010201020102010201090
:1000F000201020102010201020103A00E325E837AF
:10010000EE33A0316F10E1342010201020102010A9
:1001100020102010201020103A002D30840083136E
:1001200000080319A1280330F800F701F70B9628FF
:10013000F80B9528E330F700F70B9C280000800BA4
:10014000932808003418A6280712A728071620129B
:100150002008831687008312B418B0288712B128AC
:100160008716A01220088316870083123419BA2834
:100170000713BB2807172013200883168700831254
:10018000B419C4288713C5288717A013200883161D
:1001900087000000831207142010200883168700B0
:1001A000D128D228D32883120710201020088316C4
:1001B000870083120800B5012016200883168700E7
:1001C00000308312071A0130B504A01620088316E8
:1001D000870000308312871A0130F7000310F70DF3
:1001E0007708B50420172008831687000030831293
:1001F000071B0130F700F70DF70DFC30F705770806
:10020000B504A01720088316870000308312871BCF
:100210000130F700F70DF70DF70DF830F705770807
:10022000B5043508F8000800201020088316870060
:100230008312A01020088316870083122011200843
:100240008316870083128710A0102008831687006A
:10025000071687160717871783120715201120081E
:1002600083168700000083120714201020088316CD
:10027000870000008312DB207808B40007102010EC
:10028000200883168700000083120714201020081E
:10029000831687004B2900008312DB207808B30007
:1002A00007102010200883168700831220122008D0
:1002B000831687008312A0122008831687008312FA
:1002C00020132008831687008312A01320088316AA
:1002D00087008312340EF700F030F70577083304F7
:1002E000F8007808B300B31F772983162829B108CE
:1002F000031D7C2987107D298714A01020088316F0
:100300008700000083120711201120088316870040
:100310000000831207102010200883168700831224
:10032000320EB3000F30B3053308B400A2203208F8
:100330000F39B300B400A22008002830A7000C3009
:10034000A8000130A9000630AA00071020102008DC
:100350008316870083128710A01020088316870059
:1003600083120711201120088316870083122012A0
:100370002008831687008312A012200883168700A6
:10038000831220132008831687008312A0132008ED
:10039000831687008312201020088316870083129B
:1003A000A0102008831687008312201120088316CE
:1003B00087000F308312AD008D200130A600260883
:1003C000033C031CEB290330B400A2200530AD0030
:1003D0008D20A60ADF290230B400A2200530AD002E
:1003E0008D20A6012608033C031C022A273026077D
:1003F000840083130008AB00B1012B08B200142164
:10040000A60AF2298A110A12742B2E0B082A0B2A2B
:100410004030AF000C2AAF0101302D02AF072F088A
:100420008038B000B1013008B200142108002C0857
:10043000073A0319252A0B3A03192A2A063A0319FF
:10044000322A023A0319382A3D2A0130AD00AE00A3
:100450000522422AB1010130B20014210230AD0060
:100460008D20422A0130AD000230AE000522422A22
:10047000B1011030B2001421422A0130B1002C0821
:10048000B200142108000B08A6008B138316031773
:100490008C170C140000000083120313A61B8B178B
:1004A00003170C087F390319972A0313A6000317B3
:1004B0000D080313A70003170F080313A80026084D
:1004C000AC001722270803178D0003132808031711
:1004D0008F0003130B08A9008B13831603178C17C7
:1004E0000C140000000083120313A91B8B170317C1
:1004F0000C0D0E0D7F390319972A0313A60003175D
:100500000D080313A70003170F080313A8002608FC
:10051000AC001722270803178D00031328080317C0
:100520008F008D0A03198F0A0313432A031703133D
:1005300008000B08A7008B13831603178C170C14E5
:100540000000000083120313A71B8B170318D02A87
:1005500003170C087F390313A70003170D080313B3
:10056000A80003170F080313A9002708AC001722DF
:10057000280803178D000313290803178F0003139E
:100580000B08AA008B13831603178C170C1400009A
:10059000000083120313AA1B8B17A60BD02AEF2A85
:1005A00003170C0D0E0D7F390313A70003170D0859
:1005B0000313A80003170F080313A9002708AC00B2
:1005C0001722280803178D000313290803178F002B
:1005D0008D0A03198F0A03100313A60B992A8A1197
:1005E0000A12372C2D08F8012C020318FA2A2C08BD
:1005F000F700062BF7010830AE00AC0DF70D2D0803
:1006000077020318F700F80DAE0BFD2A0800203022
:10061000271E3030A8002608F700A61F172BF70961
:10062000F70A7708A6002D30A800A7172714260878
:10063000AC006430AD00F2227708A60030307807B5
:10064000A9002608AC000A30AD00F222303077074E
:10065000AB0030307807AA002808F70030302902B4
:100660000319362BA714A71B27154A2B2808A90006
:100670002030A80030302A020319422B2714A71B70
:10068000A7144A2B031D2714031D4A2B2908AA006F
:100690002030A9002719512BA718542B2718572BA6
:1006A0005A2B2808AC0017222908AC0017222A0868
:1006B000AC0017222B08AC0017228A110A123C2C1E
:1006C00003081F398300FF30A000A201A101831697
:1006D0001F149F141F159F1107309C0083130130B6
:1006E0008312A400A5019D2925080A3C031C9B2B0D
:1006F0008316061483120618882B230B882B2408D4
:10070000023C031D882B0230A300FA30AD008D207F
:1007100083168614831286189B2B2308023C031D24
:100720009B2B2408023C031D9B2B0130A300A50733
:10073000FA30AD008D20A5080319C12B831686144D
:1007400083128618AE2B230BAE2B2408023C031D0C
:10075000AE2B0330A300FA30AD008D2083160614B3
:1007600083120618C12B2308033C031DC12B240848
:10077000023C031DC12B0130A300A502FA30AD00DD
:100780008D208316061583120619E92B240BE92BFD
:10079000A5010130A3000230A400AD010130AE007C
:1007A0000522043003178D0000308F00031343220D
:1007B000AD01AE010522133003178D0000308F000C
:1007C000031343220C30A600FA30AD008D20A60B97
:1007D000E42B8316861583128619102C2408023CFC
:1007E000031D102CA5010130A400AD01AE000522AF
:1007F000223003178D0000308F0003134322AD0118
:10080000AE010522323003178D0000308F00031334
:1008100043220C30A600FA30AD008D20A60B0B2C25
:10082000A50803193F2C2508093C031C3F2C24086C
:10083000023C031D3F2C831688010130831288007F
:10084000AD01AE000522413003178D0000308F004E
:1008500003134322AD01AE010522503003178D0072
:1008600000308F0003100B300313A600992A2508CF
:10087000A6001830A700072B2030AC00172225084F
:100880000A3C031D622C2408023C031D622C033029
:10089000A3008316880183128800AD010130AE00E9
:1008A0000522583003178D0000308F0003134322B8
:1008B000AD01AE010522633003178D0000308F00BB
:1008C00003134322A508031D822C2408023C031DA8
:1008D000822C8316880183128801AD010130AE009D
:1008E00005226F3003178D0000308F000313432261
:1008F000AD01AE0105227E3003178D0000308F0060
:0809000003134322742B630072
:02400E00733FFE
:00000001FF
;PIC16F877A
;CRC=F684  CREATED="04-Jun-23 07:42"
